:020000040000fa
:020000040800f2
:10000000f0ef1120d56f0008cdf70008d1f70008f8
:10001000d9f70008ddf70008e1f70008000000004c
:10002000000000000000000000000000c9f7000808
:10003000d5f7000800000000c9f70008c9f700085c
:10004000c9f70008c9f70008c9f70008c9f7000890
:10005000c9f70008c9f70008c9f70008c9f7000880
:10006000c9f70008c9f70008c9f70008c9f7000870
:10007000c9f70008c9f70008c9f70008a5e100089a
:10008000a5e10008a5e10008a5e10008c9f70008fe
:10009000c9f70008c9f70008c9f70008c9f7000840
:1000a000c9f70008c9f70008c9f70008c9f7000830
:1000b000c9f70008c9f70008c9f70008c9f7000820
:1000c000c9f70008c9f70008c9f70008c9f7000810
:1000d000c9f70008c9f70008c9f70008c9f7000800
:1000e000c9f70008c9f70008c9f70008c9f70008f0
:1000f000c9f70008c9f70008c9f70008c9f70008e0
:10010000c9f70008c9f70008c9f70008c9f70008cf
:10011000c9f70008c9f70008c9f7000801cb0008b3
:1001200001cb000801cb000801cb000801cb00087f
:1001300001cb000801cb0008c9f70008c9f7000887
:10014000c9f70008c9f70008c9f70008c9f700088f
:10015000c9f70008c9f70008c9f70008c9f700087f
:10016000c9f70008c9f70008c9f70008c9f700086f
:10017000c9f70008c9f70008c9f70008c9f700085f
:10036000000000000000000049df000851dc000828
:1003700081dc0008b1dc0008e1dc000811dd0008c8
:10038000c9f70008c9f70008c9f70008c9f700084d
:10039000c9f70008c9f70008c9f700080000000005
:1003a0000000000000000000c9f70008c9f70008bd
:0803b000c9f70008c9f70008b5
:020000040000fa
:020000040800f2
:10040000f8b500bff8bc08bc9e467047a9d30008e9
:10041000f8b500bff8bc08bc9e46704785d30008fd
:020000040000fa
:020000040800f2
:08042000e436000001000000b9
:020000040000fa
:020000040800f2
:100428006c0102201c000000000000008c08022063
:10043800080000000200ffff48010220240000001d
:1004480000000000880102201c00000000000000dd
:1004580066020220010000000000000020030220c4
:10046800200400000400000000030c00030c00ff3f
:1004780000ff00ff00ff001ce80002203000000021
:1004880000000000c001022014000000000000006d
:10049800e0f01120000400000000000048020220e3
:1004a8000600000000000000f80102200c00000017
:1004b800000000007cff11206c000000000000001c
:1004c800680202200c0000000000000048fb112018
:1004d800980100000000000000f01120d00000008a
:1004e80002000000010302200100000001000000da
:1004f800ff00000040070220d400000001000000b7
:100508000cc200080000000000000000000000000d
:1005180000000000000000000000000000000000d3
:1005280000000000000000000000000000000000c3
:1005380000000000000000000000000000000000b3
:1005480000000000000000000000000000000000a3
:100558000000000000000000000000000000000093
:100568000000000000000000000000000000000083
:100578000000000000000000000000000000000073
:100588000000000000000000000000000000000063
:100598000000000000000000000000000000000053
:1005a8000000000000000000000000000000000043
:1005b8000000000000000000000000000000000033
:1005c8000000000000000000000000000000000023
:1005d8000000000050020220060000000000000099
:1005e800740202200400000000000000a8fd112091
:1005f800a4000000000000007802022008000000ab
:1006080000000000040202200c00000000000000ae
:10061800800202200400000000000000670202209f
:100628000100000000000000ecfe11209000000016
:1006380000000000e0f4112080020000000000002b
:10064800840202200c000000000000009c08022028
:10065800040000000200ffffe8ff1120180000005e
:1006680000000000a40102201c000000000000009f
:10067800900202201800000000000000fd02022085
:100688000100000000000000a80202200400000091
:1006980000000000d0f01120100000000000000051
:1006a8004e0202200200000000000000ac020220fe
:1006b8000800000000000000100202200c000000ea
:1006c80000000000e8010220100000000000000007
:1006d800b4020220080000000000000056020220b8
:1006e800020000000000000094080220060000003c
:1006f8000200ffff60000220480000000000000028
:10070800fe0202200100000000000000bc020220de
:1007180004000000000000005e0202200200000049
:1007280000000000c00202201400000000000000c9
:100738001c0202200c0000000000000060f71120dd
:10074800e803000000000000a800022040000000ac
:1007580000000000ff02022002000000000000006c
:10076800e0fc1120c8000000000000002802022060
:100778000c000000000000004002022008000000f9
:1007880000000000d4020220080000000000000061
:100798009a08022002000000040000000100010085
:1007a8004cfe1120a00000000000000018010220eb
:1007b8003000000000000000dc02022008000000f9
:1007c80000000000140302200c00000001000000db
:1007d800f4010000d0070000010000001408022006
:1007e8007800000004000000080001080001020071
:1007f80001010001020001080002060001060101d2
:10080800ca00010100010800030100010100010103
:100818000001d001400003cb0001010001010003e9
:10082800010001010001010001d001400003cc00da
:1008380001010001010003010001010001010002a2
:1008480006400003cd000101000101000301000181
:1008580001000101000206400003ce000101000171
:10086800010003010001010001010001d003400063
:1008780003cf00015802022006000000000000001b
:1008880060020220060000000000000004030220ad
:100898001000000001000000010100004dc0000828
:1008a80045d50008c0fd0000d40102201400000056
:1008b80000000000e4020220040000000000000024
:1008c800fc0202200100000000000000e8020220f3
:1008d8000800000000000000a0080220040000003a
:1008e8000100000001000000f002022004000000e6
:1008f800000000001000022050000000000000006e
:10090800f402022008000000000000003402022067
:100918000c0000000000000000000000b803000008
:1009280001000000f0ef1120d56f0008cdf7000896
:10093800d1f70008d9f70008ddf70008e1f700084b
:10094800000000000000000000000000000000009f
:10095800c9f70008d5f7000800000000c9f700082b
:10096800c9f70008c9f70008c9f70008c9f700085f
:10097800c9f70008c9f70008c9f70008c9f700084f
:10098800c9f70008c9f70008c9f70008c9f700083f
:10099800c9f70008c9f70008c9f70008c9f700082f
:1009a800a5e10008a5e10008a5e10008a5e1000807
:1009b800c9f70008c9f70008c9f70008c9f700080f
:1009c800c9f70008c9f70008c9f70008c9f70008ff
:1009d800c9f70008c9f70008c9f70008c9f70008ef
:1009e800c9f70008c9f70008c9f70008c9f70008df
:1009f800c9f70008c9f70008c9f70008c9f70008cf
:100a0800c9f70008c9f70008c9f70008c9f70008be
:100a1800c9f70008c9f70008c9f70008c9f70008ae
:100a2800c9f70008c9f70008c9f70008c9f700089e
:100a3800c9f70008c9f70008c9f70008c9f700088e
:100a480001cb000801cb000801cb000801cb00084e
:100a580001cb000801cb000801cb0008c9f700084a
:100a6800c9f70008c9f70008c9f70008c9f700085e
:100a7800c9f70008c9f70008c9f70008c9f700084e
:100a8800c9f70008c9f70008c9f70008c9f700083e
:100a9800c9f70008c9f70008c9f70008c9f700082e
:100c8800c9f70008000000000000000049df000864
:100c980051dc000881dc0008b1dc0008e1dc000858
:100ca80011dd0008c9f70008c9f70008c9f70008ee
:100cb800c9f70008c9f70008c9f70008c9f700080c
:100cc800000000000000000000000000c9f7000854
:100cd800c9f70008c9f70008c9f7000800000000b4
:100ce8000000000066666666666666666666666634
:020000040000fa
:020000040800f2
:100cf800496e7465726661636520256420495020d9
:100d08003d2025642e25642e25642e25640d0a00b9
:100d180036323334000000005570646174696e67c0
:100d280020626f6f7420666c61672066726f6d2039
:100d380030782530385820746f203078253038586e
:100d48000d0a0000426f6f7420666c616720757031
:100d58006461746564207375636365737366756c29
:100d68006c792028307825303858290d0a00000081
:100d7800426f6f7420666c616720616c7265616494
:100d8800792073657420746f203078253038582c9a
:100d9800206e6f20757064617465206e656564658a
:100da800640d0a00504859204173736572743a20e3
:100db80025732c20696e206c696e653a2025642c99
:100dc800200d0a0050485920436f6e643a2025735d
:100dd8002c20696e206c696e653a2025642c200de4
:100de8000a0000004452565f504859206f706572df
:100df8006174696f6e206572726f723a2025640d96
:100e08000a0000004452562050485920696e6974ff
:100e1800206661696c65643a2025640d0a0000004b
:100e2800474d414300000000644d49494d2041733e
:100e3800736572743a2025732c20696e206c696e74
:100e4800653a2025642c200d0a00000054435049bf
:100e58005020537461636b204173736572743a2038
:100e6800696e2066696c653a2025732c2066756e5c
:100e7800633a2025732c206c696e653a2025642c12
:100e8800200d0a005443502f495020537461636b5e
:100e98003a202573204d414320696e697469616c5d
:100ea800697a6174696f6e206661696c65640d0aa0
:100eb800000000005443502f495020537461636b65
:100ec8003a202573204d4143204f70656e2066619e
:100ed800696c65640d0a00005443502f4950205333
:100ee8007461636b3a204d6f64756c65206e6f3a60
:100ef80020256420496e697469616c697a61746936
:100f08006f6e206661696c65640d0a005443502f4a
:100f1800495020537461636b3a202573204d414337
:100f2800206576656e74206e6f7469666963617496
:100f3800696f6e2073657474696e67206661696c89
:100f480065640d0a000000005443502f4950205397
:100f58007461636b3a20486561702044656c657400
:100f680065206661696c21204e6f2074726163652b
:100f7800206578697374730d0a0000005443502f7c
:100f8800495020537461636b3a204865617020634f
:100f980072656174696f6e206661696c65642c2086
:100fa800747970653a2025640d0a00005443502f67
:100fb800495020537461636b3a204e6574776f72a1
:100fc8006b20636f6e66696775726174696f6e20f6
:100fd800616c6c6f636174696f6e206661696c65c2
:100fe800643a20256c750d0a000000005443502f08
:100ff800495020537461636b3a205061636b657488
:1010080020696e697469616c697a6174696f6e20b0
:101018006661696c65643a20307825780d0a0000ad
:101028005443502f495020537461636b3a204465f0
:101038006661756c7420466c617368204e657477c0
:101048006f726b20636f6e66696775726174696f22
:101058006e206c6f6164206661696c65642025642c
:101068000d0a00005443502f495020537461636b9c
:101078003a204e6574776f726b20636f6e6669678e
:1010880075726174696f6e20696e697469616c69e3
:101098007a6174696f6e206661696c65643a2025af
:1010a800640d0a005443502f495020537461636bf8
:1010b8003a204e6574776f726b20636f6e6669674e
:1010c80075726174696f6e3a20416c6961736573fa
:1010d800206e6f7420737570706f727465643a2037
:1010e80025640d0a000000005443502f4950205336
:1010f8007461636b3a204e6574776f726b20636f0f
:101108006e66696775726174696f6e3a20696e768a
:10111800616c696420495020616464726573733a34
:101128002030782538780d0a0000000025732564e2
:10113800000000005443502f495020537461636be2
:101148003a20506f776572204d6f646520696e692b
:101158007469616c697a6174696f6e206661696c23
:101168003a2025640d0a00005443502f495020535b
:101178007461636b3a2044796e616d6963206d65b3
:101188006d6f7279206973206c6f773a20256c75c2
:101198000d0a00005443502f495020537461636b6b
:1011a8003a20496e697469616c697a6174696f6e15
:1011b800206661696c6564202564202d2041626f7a
:1011c8007274696e6721200d0a0000005443502f85
:1011d800495020537461636b3a20496e69746961a0
:1011e8006c697a6174696f6e205374617274656496
:1011f800200d0a005443502f495020537461636beb
:101208003a205469636b20726567697374726174fc
:10121800696f6e206661696c65643a2025640d0a01
:10122800000000005443502f495020537461636bf1
:101238003a20496e697469616c697a6174696f6e84
:101248002053595320544d52206661696c65643aa5
:10125800202564202d2041626f7274696e672120f9
:101268000d0a00005443502f495020537461636b9a
:101278003a20496e697469616c697a6174696f6e44
:1012880020456e646564202d2073756363657373f0
:10129800200d0a005443502f495020537461636b4a
:1012a8003a20496e7465726661636520496e697497
:1012b80069616c697a6174696f6e206661696c65d1
:1012c800643a2030782578202d2041626f72746945
:1012d8006e6721200d0a000045746865726e65749a
:1012e800206e6574776f726b206c696e6b207570f9
:1012f8002e0d0a002e2e2f7372632f636f6e666990
:10130800672f64656661756c742f6c6962726172af
:10131800792f74637069702f7372632f74637069a7
:10132800705f6d616e616765722e6300756e6b002c
:1013380065746800776c616e000000007070700062
:1013480067336164700000004950763420496e6943
:10135800743a204661696c656420746f20696e690f
:1013680074616c697a653a20256421200d0a0000b1
:10137800495076343a204661696c656420746f2060
:10138800726567697374657220415250206e6f747c
:10139800696669636174696f6e21200d0a00000037
:1013a800495076343a2041525020656e747269650e
:1013b8007320706f6f6c20656d707479210d0a0051
:1013c80066756c6c000000006c6f7700646f776e58
:1013d80000000000554450204e554c4c2064796e56
:1013e800616d696320616c6c6f636174696f6e20f5
:1013f80068616e646c6500005544502044796e61e4
:101408006d696320616c6c6f636174696f6e2066cf
:1014180061696c65640000005061636b657420410c
:10142800636b3a206f727068616e207061636b65e0
:101438007421200d0a000000426f6f7420666c61f1
:101448006720696e697469616c697a656420746f74
:101458002046414c53450a00426f6f7420666c6108
:10146800672069732046414c5345206f7220696e8e
:1014780076616c69642e2053746179696e6720699e
:101488006e20626f6f746c6f616465722e202564c4
:101498000a000000455448004d434850424f41520d
:1014a800445f45544800000030303a30343a323511
:1014b8003a31433a41303a30330000003139322e64
:1014c8003136382e312e3131000000003235352ebc
:1014d8003235352e3235352e30000000302e302e84
:1014e800302e3000494f2041676772656761746f1d
:1014f8007220696e20426f6f74204d6f64650d0a0b
:0115080000e2
:020000040000fa
:020000040800f2
:10150c005478204279746520436f756e742d6c6f1e
:10151c00776572203332626974732854784f544c57
:10152c004f29000081f2000854782042797465201c
:10153c00436f756e742d75707065722031366269eb
:10154c0074732854784f54484929000091f20008cc
:10155c005478204672616d657320772f6f20657209
:10156c00726f722854784654434e54290000000080
:10157c0000000000a1f2000854782042726f6164f0
:10158c0063617374204672616d65732854784243ad
:10159c00465429000000000000000000b1f20008d1
:1015ac005478204d756c7469636173742046726154
:1015bc006d65732854784d465429000000000000d6
:1015cc0000000000c1f2000854782050617573656a
:1015dc00204672616d65732854785046542900007a
:1015ec00000000000000000000000000d1f2000824
:1015fc0054782036342d62797465204672616d659d
:10160c0073285478424654363429000000000000f8
:10161c0000000000e1f2000854782036352d3132fc
:10162c00372062797465204672616d657328544267
:10163c00465431323729000000000000f1f2000856
:10164c005478203132382d3235352062797465204a
:10165c004672616d65732854424654323535290003
:10166c000000000001f300085478203235362d3587
:10167c0031312062797465204672616d657328542e
:10168c0042465435313129000000000011f30008a6
:10169c005478203531322d313032332062797465f3
:1016ac00204672616d657328544246543130323392
:1016bc002900000021f30008547820313032342df9
:1016cc00313531382062797465204672616d6573ed
:1016dc0028544246543135313829000031f3000882
:1016ec005478204672616d6573203e3d2031353152
:1016fc00382062797465284754424631353138298f
:10170c000000000041f30008547820556e646572a7
:10171c0072756e204672616d6573206e6f74205405
:10172c0058656428547854555229000051f3000828
:10173c0054782053696e676c6520436f6c6c6973c9
:10174c00696f6e204672616d6573285478534346f9
:10175c002900000061f30008547820322d31352027
:10176c00436f6c6c6973696f6e204672616d657343
:10177c002854784d434629000000000071f30008fe
:10178c00547820313620436f6c6c6973696f6e200e
:10179c004672616d65732854784543434e54290055
:1017ac000000000081f300085478206c61746520ff
:1017bc00436f6c6c6973696f6e204672616d6573f3
:1017cc002854784c43434e542900000091f30008f0
:1017dc005478204465666572726564204672616d4a
:1017ec00657328547844544629000000000000001a
:1017fc0000000000a1f30008547820436172726964
:10180c0065722053656e7365206572726f72204627
:10181c0072616d657328547843534529b1f3000800
:10182c005278204279746520436f756e742d6c6ffd
:10183c00776572203332626974732852784f524c38
:10184c004f290000c1f300085278204279746520ba
:10185c00436f756e742d75707065722031366269c8
:10186c0074732852784f524849290000d1f300086c
:10187c005278204672616d657320772f6f206572e8
:10188c00726f722852784652434e54290000000061
:10189c0000000000e1f3000852782042726f61648e
:1018ac0063617374204672616d657328527842438c
:1018bc00465229000000000000000000f1f300086f
:1018cc005278204d756c7469636173742046726133
:1018dc006d6573202852784d465229000000000097
:1018ec000000000001f40008527820506175736507
:1018fc00204672616d65732852785046522900005b
:10190c0000000000000000000000000011f40008be
:10191c0052782036342d62797465204672616d657b
:10192c0073285278424652363429000000000000d9
:10193c000000000021f4000852782036352d313299
:10194c00372062797465204672616d657328544244
:10195c0046523132372900000000000031f40008f3
:10196c005278203132382d32353520627974652029
:10197c004672616d657328544246523235352900e2
:10198c000000000041f400085278203235362d3525
:10199c0031312062797465204672616d657328540b
:1019ac0042465235313129000000000051f4000844
:1019bc005278203531322d313032332062797465d2
:1019cc00204672616d657328544246523130323371
:1019dc002900000061f40008527820313032342d97
:1019ec00313531382062797465204672616d6573ca
:1019fc0028544246523135313829000071f4000820
:101a0c005278204672616d6573203e3d2031353130
:101a1c003920627974657328544d58424652290016
:101a2c000000000081f400085278204672616d6558
:101a3c0073203c20363420627974657328527855b3
:101a4c0046522900000000000000000091f400083c
:101a5c005278204672616d6573203e2031353138e5
:101a6c002062797465732852784f46522900000021
:101a7c0000000000a1f400085278206572726f72a9
:101a8c00204672616d6573203e20313531382062fd
:101a9c00797465732852784a52290000b1f4000811
:101aac00527820435243206572726f7220467261e5
:101abc006d65732852784643534529000000000099
:101acc0000000000c1f400085278204c656e677469
:101adc0068206669656c64206572726f722046724c
:101aec00616d65732852784c46464529d1f400083f
:101afc0052782073796d626f6c206572726f7220f0
:101b0c004672616d65732852785253452900000066
:101b1c0000000000e1f40008527820616c69676ee7
:101b2c006d656e74206572726f72204672616d65a0
:101b3c00732852784145290000000000f1f4000898
:101b4c005278205265736f75726365204572726f9f
:101b5c0072202852785252452900000000000000e3
:101b6c000000000001f500085278206f7665727253
:101b7c00756e206572726f72204672616d65732886
:101b8c005278524f452900000000000011f5000862
:101b9c0052782049504864722043686b73756d20ed
:101bac006572726f72204672616d65732852784946
:101bbc004843452921f500085278205443502043ce
:101bcc00686b73756d206572726f72204672616df1
:101bdc0065732852785443452900000031f50008fc
:101bec005278205544502043686b73756d20657294
:101bfc00726f72204672616d657328527855434539
:081c0c002900000041f5000869
:020000040000fa
:020000040800f2
:101c14002de9f04f984c87b0844240f0c480dff83f
:101c2400848298f90020531edbb2012b00f2bb80a2
:101c3400924e3568002d00f0af80012a00f0b68086
:101c44002388002b00f07f820027286d002840d0d5
:101c5400ab6c9b69984795f84530580639d5ab6c01
:101c6400286d5b6998470028c0f2b180022830d102
:101c7400002340f2dc5202a9686d04930593adf889
:101c84001220cde90233ab6c1b6c9847029848f2e2
:101c94004003b5f84410e863bdf80c20a5f84020d3
:101ca400bdf80e20003a18bf012243ea423341f640
:101cb400bf720a401343bdf81220a5f862209df8b4
:101cc400152085f864209df81420a5f8443085f883
:101cd40065200137238870359f42b6db98f90020d0
:101ce400012a00f08180664d2b68002b00f0a7804c
:101cf400644b654f1a68002a00f09880dff8a8a1a9
:101d04001968002940f0d0813d6832682388002d8d
:101d140040f0a5801bb31846a946002140f2866610
:101d24005a4d0c4692f844305b0610d5b2f8603038
:101d34001e4202d02b6801332b6092f866309f0755
:101d440003d523f0020382f86630a2f86040013123
:101d540070328142e6dbb9f1000f40f07a814c4cdd
:101d640004f5187534f8082c54f8103c0ab103b182
:101d740098471034ac42f5d1daf800309bb14548ad
:101d8400446984b100234ff4807201211030a446c9
:101d940007b0bde8f04f60473f4b02a81b68984767
:101da400002840f3c88007b0bde8f08f3b4f3b6884
:101db400013300f0d3812388002b7ff445af022345
:101dc4003749002088f800300cf018f88be703231b
:101dd40004222946284809f091ff95f8453043f03c
:101de400800385f8453074e73768002be7d04ff05f
:101df40000093d46a446484606e049ea0e0901307a
:101e04007035834200f0a08095f8451002fa00fe78
:101e140001f00c04042cf0d111f0800fc3d095f81c
:101e240044104906ebd549ea0e09e8e7dff878a043
:101e34003a68daf800100a437ff462afb3e7208807
:101e4400326828b984e1834202f1700200f0808193
:101e540092f8441001334f06f5d52a6048e78946c5
:101e6400002235683a60002b00f08c801746b34698
:101e7400dff8388029e000bfa4010220a402022078
:101e8400a0020220980202209c0202209402022056
:101e940010f51120e0f41120800202209c08022099
:101ea4006c1200086702022084020220f8fe11204e
:101eb40095f845309a0603d5ab6c686d9b6b9847d3
:101ec400013723887035bb425bdd95f844305906f1
:101ed400f6d5ab6cb5f85e605b6d686d98470643ec
:101ee4000df066fcb5f85e30b6b223ea0603a5f839
:101ef4005e300df05ffcb5f860303146686d3343f9
:101f0400a5f86030ab6c1b6d984716f0160fcfd058
:101f140002e08d620cf024fcab6c0022686d11466b
:101f24005b6b9847014640460029f2d1a74a1368e3
:101f340001331360bce740f00d810298002800f0e3
:101f4400098100f0c7f92ee70122644602fa03f37f
:101f5400013b4b453ff433af00259d4e04e0013572
:101f6400238870379d4263dab7f8443044f2400264
:101f74001a42f4d0032304223946304609f0befe47
:101f8400ede75e460023dff87882924fa346019383
:101f940038460cf0f5fb002839d0436900258e4cf7
:101fa4009b895bba9bb222889a4209d001350834d6
:101fb400042df8d101226ff00c010cf047f8e7e78b
:101fc400036a0146626823f47c1313430362608846
:101fd400824b00eb400003eb80000cf0c1fb0122bc
:101fe400019b02fa05f52b40d2d1618808eb011060
:101ff4000901b0f808c044684cea020ca0f808c013
:102004000cb10909a047019b2b430193c0e70df0d4
:10201400cffbb8f8183023f00103a8f818300df0fe
:10202400c9fbbbf80000326800287ff476ae92e664
:10203400ff2388f800300df035fb00283ff4b3aee1
:102044000df02afb4a46664907b0bde8f04f09f097
:10205400cdb9644ca4f1200804f5187503e0a381fc
:102064001034ac4252d023685f49002bf8d0b4f945
:102074000a20002af4d0a38909685b1a98b21bb21b
:10208400002becdc2389a4eb08011044666843f0c0
:102094000203c1f30f11a0812381002ee0d000239d
:1020a40002222046b047dbe70025dff858b11d6067
:1020b4000df0fefa80460cf049fd2b46814642465f
:1020c40001910bf0fbfe494bcbf800004846a3fb03
:1020d400083201992b46dff8308192090bf0eefead
:1020e400434a414bc8f80000196813685b1aab42b5
:1020f400136040f38b80396832682388002962d1e9
:10210400002ba6d018464ff0010906e60df050fb4f
:10211400b8f8083023f00203a8f808300df04afba1
:102124001de600f5a673324a3568b3fbf0f300fbf5
:1021340003f313602388002b7ff486ad98f90030f5
:10214400012b3ff43cae2b4d2b68002b7ff4d0ad1c
:10215400002282e6002388f8003024e6264a002183
:1021640005200cf00ffd3860013000f08a800bf080
:10217400afff1e4a00eb800303f2e733a2fb032305
:102184004ff47a729b0902fb03f3b3fbf0f0164b96
:1021940018601a4b03f5187102e010339942c0d04d
:1021a40053f80a2c002af8d0b3f90020002af4d0fe
:1021b40090424ff0000588bf02b262f30f0562f34c
:1021c4001f451d60e9e74ff0010949e6900202202e
:1021d400a4010220f8fe112044e70008ecfe1120bf
:1021e4009c12000800f511208c020220d34d6210cd
:1021f40088020220a0020220cdd900080af511208d
:10220400e0f411207c0202207802022003f24d1334
:10221400d6f8008013602388002b4cd0b14698f880
:10222400443058061ad5d8f84830d8f854005b6ab8
:10223400984798f866300646234903f001030020c6
:102244009e420bd009f0d2f898f8663043f00203ae
:1022540066f3820366f3000388f866302388013549
:1022640008f170089d421846d9db39684e46d9f802
:1022740000200029a7d1002b3ff4ebae4ff0010959
:102284004be50df00ffa78b907f046fcff2388f808
:1022940000300df007fa00283ff485ad0df0fcf98d
:1022a4004ff0ff320949cfe60df0f6f9052208494f
:1022b40009f09cf8e8e73a68002a3ff4caae4ff008
:1022c40001093b605ee600bfe01200082c12000822
:0422d400fc110008f1
:020000040000fa
:020000040800f2
:1022d8002de9f04fd0e901548fb0002c4cd0002ddf
:1022e8004ad0ab6a002b47d0c66803690596002b15
:1022f80018bf002e04930cbf012700273cd084464a
:10230800dff838839e46bce80f00a8e80f009ce879
:10231800030088e8030004e0bef1010e06f1080698
:1023280058d03388012bf7d173680393b84e002136
:1023380003980df021f98046b06000285bd0039b1c
:10234800702221461b78337383689847b14b186015
:10235800002849d02246294640460bf035fd034661
:1023680078b90df09df9002840f0388103240df06c
:1023780097f990bb07f0cefb002318460fb0bde8d5
:10238800f08f049a002ca3497260a2b2d1f8009091
:10239800328040f33381aa4606954ff0000b4d4634
:1023a800814603e00bf1010b5c453bd029465046c2
:1023b800002270350af13c0a04f07cfd0028f1d1b6
:1023c8000df06ef938bb0df06bf9002840f05b8119
:1023d8000424cce7cdf80ce0a8e70df05bf9224621
:1023e8008d4909f001f8c5e70df05af9002840f0c9
:1023f800fc800224bbe70df053f908b90124b6e7c5
:102408000df048f9039b002b00f054811a7883499a
:1024180008f0eafff2e70df03df95a46804908f066
:10242800e3ffd0e77b4a4b46012c069dd2f800908b
:102438007288d9f8481009f1700e00f0228183469d
:1024480094464ff0010a0846cde906289846734697
:10245800524601e094420bdd996c01327033884298
:10246800f8d10cf1010c94425f461ffa8cfcf3dca6
:102478000af1010adef848000ef1700e5445e6d163
:102488004346dde90628002f00f0fb80a6f802c0cd
:10249800bcf1000f40f0b680ce46def818700cf1a3
:1024a800010c0ef1700e002f40f084806445f4d1c9
:1024b800328800275b49cde90977cde90b770d977d
:1024c8000f6042b309f16809dff874b19a46cde9a3
:1024d8000648a84619f8013c0ea829f80c7c0721e3
:1024e80000eb8305504a5bf82330484655f8144cf6
:1024f800013709f17009009401340cf086fb0023c0
:1025080045f8144c09f86a3c33889f42e2db45469b
:102518005346dde906484ff42072002143480693ec
:102528000cf03cfe424a0021039bdff81891116031
:10253800dff814c109f1900793e80700069b9a4653
:102548008ce80700484609f10c090df08bf84f4557
:10255800f8d100272f4a5346bc42d2f8009037766c
:1025680075dda246ddf810b04c460393ddf81490f3
:102578000ce07376c6e9044701f032fe002800f04b
:102588009780013770343c35ba455fd0286a0bf024
:1025980019fd03465a46494603f0fd0c1c48bcf198
:1025a800010fe6d09a460df07bf8002840f08480b1
:1025b8000724dce664457ff77baf7246614602e09c
:1025c8008c423ff46aaf9069013170328742f7d18b
:1025d8000df066f8002864d10624c8e60df05af814
:1025e8004246144908f000ffc0e6c4ebc4040df0ed
:1025f80051f81149220108f0f7fefae6718800291e
:102608003ff457af0df04cf8002843d10524aee64f
:10261800a4010220a40202209c110008840f0008d3
:1026280028100008a002022034110008e0f411204c
:1026380084020220f40f0008b40f0008e8ff1120fc
:10264800f0f00008ecfe112004020220039bd8f8e9
:102658001820404603939047b0f5006f0446039b4b
:10266800bff48bae03930df01bf80128039b7ff694
:1026780084ae0df00ff82246134908f0b5fe039b0f
:102688007be6944604e70df005f822460f4908f06a
:10269800abfe9de60cf0feff0d49728808f0a4fe23
:1026a800b4e70cf0f7ff3a460a4908f09dfe93e7b5
:1026b80008245ce6039aaae60cf0ecff52460649a9
:1026c80008f092fe74e700bf701100086c10000853
:0c26d800ac100008f01000083c110008d5
:020000040000fa
:020000040800f2
:0426e400704700bf7c
:020000040000fa
:020000040800f2
:1026e8002de9f04f2ded0a8b92ed008b8db01e4633
:1026f800b5eec08b0b69d1f808a0cc680590f1ee57
:1027080010fad1e9009b069307d419f0040f30d1d1
:1027180019f008052fd0202302e02d23b1ee488bb5
:1027280023700af1ff32012518ee903a18ee100acc
:1027380023f00041bc4b4ff00008994208bf4045c8
:102748001bd1413e192e94bfb849b94960190cf004
:10275800d1ffb7480cf0aafbcdf8009002465346cb
:102768000598214608f00cfa0db0bdec0a8bbde8bf
:10277800f08f2b23d4e75246d6e780458b41a6f14c
:102788004103039308d2192b94bfaa49aa49601997
:102798000cf0b0ffa848dde730216155b5ee408b5d
:1027a8000399b7ee009b192905f101038cbf782125
:1027b8005821f1ee10fae15405f10205a2f10202e6
:1027c80040f0ec80b0ee49bbb0ee48cbbbf1000f57
:1027d8009fed8fabacbf5b461823591c002700bf89
:1027e8008cee0b0bcde90731049206f0c1fabbf170
:1027f800000f00ee4bcbdde907312bee0abb049a44
:1028080007f1010704dab5ee40cbf1ee10fa02d079
:102818008f42e5d15f1cb2ee007b2bee077bb4ee56
:10282800c7cbf1ee10fa00f1dc80b4ee47cbf1ee45
:1028380010fa09d1bdeec00b9fed776b10ee103a80
:1028480013f0010f06fe077b38ee078b18ee903a5f
:1028580018ee10ca744923f000400023884208bfcc
:102868009c453ff46eaf06990539a942079140f29d
:102878001481794208912e46ae461f46049300bf44
:1028880088ee090bcde90a23cdf824e006f070faaa
:10289800fdeec07bdde909e2b0ee40bb17ee900a21
:1028a8000b9b002840f0a080002b00f09d80013792
:1028b80008990bee498b013b8b4229ee0a9b03d00a
:1028c80007998e42b646dbd3049bcbb9002f40f361
:1028d800e580bbf1000f40f3e18019f0010f40f0f3
:1028e800dd80a3192e211970b9192144302000bfa9
:1028f80003f8010f8b42fbd13e44ff4301363a44b3
:10290800069b0021a019013b88450170b8bfc8f19a
:102918000008e1544ff00107b8bf01214ff00a0b3e
:1029280003f1ff3cb8f1000f40f0a580012f00f043
:10293800a28000290cbf2b212d2104f80c1003992b
:10294800023b192904eb03018cbf4ff0700c4ff0c8
:10295800500c9e4281f800c003da03920cf0cafec4
:10296800039a09f00303022b11d11744033f002fe8
:102978000ddd20460cf09afae319a84280f289800e
:102988003a46302160190cf009fc4ff0000a204645
:10299800e0e600bf08f10108b0ee479b39ee097b7d
:1029a800b4eec78bf1ee10faf4d5b6ee007b9fedce
:1029b8001c6b00bfb4eec98bf1ee10fa7ff502afc5
:1029c80029ee075bb5ee405bf1ee10fa08bf29ee81
:1029d800069b08f1ff3808bf28ee068b29ee079bf7
:1029e800e8e79fed0d7b2fe7049941b93bb14ff024
:1029f8002e0c012104f80ec00136013a0491e119a8
:102a080004eb060c31444ff0300e19e0aff30080b0
:102a1800000000000000b03f0000000000000000bf
:102a280000000000000050430000f07fcce80008e0
:102a3800d0e80008d4e80008d8e800080cf801eb52
:102a48008c45fbd1f119d71b039a0928d4bf303024
:102a58005730192a0ad840f02002613a192a05d8b5
:102a6800cde909310cf0c7fddde909317a1e605462
:102a78004e1c00271ce7634698fbfbfe0eeb8e0cf2
:102a8800a8eb4c0c0cf1300c04f803c0f046013fe5
:102a980046e7225c1a5401386fe72e4619f0100fea
:0c2aa8003ff42eaf2e23a355013629e782
:020000040000fa
:020000040800f2
:102ab4002de9f04f8db00646cde906239df8583038
:102ac40003910193d0f8a43003f58052136a059260
:102ad40013f0010300f09a8001231362bff35f8fa8
:102ae4000493039b002b00f0968001994ff0000b98
:102af400d6f88c3001eb0112d9465d46cdf808b00a
:102b040003eb82034fea820801eb8102d6f89810a6
:102b1400d3f804a031f8227092009c8f08924f459c
:102b24001ed95af834002146e300c0070aebc40258
:102b340016d55af83400032834d905bbd2f804c09a
:102b4400601c1cf4804f80b235d109f101024b4660
:102b540004461ffa82f9a74298bf00249f42ded29e
:102b6400d6f88c3043449c870120049b23b1012375
:102b7400059a1362bff35f8f0db0bde8f08f516803
:102b8400480426d452680bf10101013412041ffadf
:102b940081fba4b200f19b8009f101024b461ffaac
:102ba40082f9d8e722460134012301993046a4b2c0
:102bb40002f0e6f9f0e75268120400f13a81874224
:102bc40002941cd94ff0010b04464ff002095d46f4
:102bd400a5e7029b03eb0b05013d95fbf7f307fb10
:102be4001355691c1dd15b463046dde9011202f024
:102bf400c7f909f1ff339bb28cb92546aee74ff014
:102c0400010b2c464ff002095d4688e70493039bb1
:102c1400002b7ff46aaf01200db0bde8f08f0025d2
:102c240099e70bf1ff33adb29bb2bbf1000fdad0e1
:102c34000b94cde9099a994608e009f1ff394ff65a
:102c4400ff7395b21ffa89f9994534d0d6f88c30c0
:102c540006f15c0a53f8083053f82500d0e9023134
:102c64009847d6f88c304ff0000e326b53f808407a
:102c740005215046434444f825e002b39047d6f872
:102c84008c20336b062142445046546854f8352056
:102c940002f0030244f8352003b198476b1e7a1ef4
:102ca400002dcad009f1ff399db24ff6ff731ffa08
:102cb40089f99945cad10b9cdde9099a93e75a68c9
:102cc40052f8353003f0030342f83530e6e7d6f81e
:102cd4008c20a74298bf00240299424494875c4602
:102ce400079dd2e900ca53445cf82120d6f8981015
:102cf4005868286006985f680460089c081931f8d1
:102d040004e00399b0f80e900a6096f8b11089b106
:102d14005b6803f44003b3f5000f00f09b80b3f548
:102d2400400f00f09280b3f5800f03d1136a43f48f
:102d340080731362bbf1000f3ff416afd2f810801a
:102d44000bf1ff35cdf81cb0c7f30d074346cdf8a2
:102d54002080adb2029ce346ddf80c80cdf818e08b
:102d64004f453a46a3f80e9028bf4a464f459a81ec
:102d74004ff000032cbfa7eb090700274bf82430c2
:102d8400336b002b3fd006f15c0205211046039201
:102d940098475af83410336b01f003014af83410a1
:102da4001bb1039a062110469847d8f800201369ee
:102db400988998b19b6803f01f010144bff34f8fba
:102dc40027481944c0f85c322033ca1a002af9dcb7
:102dd400bff34f8fbff36f8fd8f800205fb101347a
:102de400069ba4b2a34215d90beb84031b68196993
:102df400136919601161013d4ff6ff73adb29d4235
:102e04000bd01369ace75af8343003f003034af8e3
:102e14003430cae75b460024e8e7dde907b830460a
:102e2400c2f810805b46dde9011202f0a9f8002027
:102e34009be6d6f88c20874298bf00204ff0010b08
:102e4400029442445c4690874ae7136a43f4a063c1
:102e540013626fe7136a43f4407313626ae700bfb7
:042e640000ed00e09d
:020000040000fa
:020000040800f2
:102e68002de9f04f2ded0a8b92ed009b8fb0b5ee5a
:102e7800c09b05938b680493f1ee10fa0b69cd683b
:102e88000690d1e900a78b46089308d41af0040fde
:102e980034d11af00803039332d0202302e02d2303
:102ea800b1ee499b2b70049b03f1ff390123039377
:102eb80019ee903a19ee101a23f00042c04b002484
:102ec8009a4208bfa1421ed1059b0398413b192b8a
:102ed80094bfbc49bc4928440cf00cfc28460bf0b4
:102ee800e5ff049bcdf800a002462946069807f0a6
:102ef80047fe0fb0bdec0a8bbde8f08f2b23d1e75e
:102f0800ddf81090d4e78c42934108d2059b0398d2
:102f1800413b192b94bfad49ad492844dce7b5eed8
:102f2800409bf1ee10fab2ee04cbb7ee00ab40f0e6
:102f3800c08005980cf058fb002fc0b2c0f2628127
:102f4800672840f0d580002f08bf0127231dc0f255
:102f5800d180bc4280f2ce80002c4ff066080cda9b
:102f6800b8f1660f07f1010707d1002c02dab7eeb6
:102f780000ab0024672800d027440023b0ee4a8b1a
:102f8800b0ee49bb8bee080b0993079005f0f0fef5
:102f9800099b90ee08bb01339f420798b1ee4bbbeb
:102fa80088ee0c8beed1b1ee047b28ee078bb4eee5
:102fb800cb8bf1ee10fa00f3a080b4ee4b8bf1ee60
:102fc80010fa09d1bdeec00b9fed796b10ee103ae7
:102fd80013f0010f06fe088b39ee088b2aee0c9bc6
:102fe800b4eec89bf1ee10fa00f28a80b8f1660fd1
:102ff80004f1010440f0868001372146cb1b0022f2
:10300800039f0a9316460a9b994240f0a5803346cf
:10301800002e00f0df80e8190022b8f1650f027079
:1030280029d1089b013b9442ea54bcbf6442012267
:103038004ff0020b4ff00a0e591e002c40f0d180c1
:10304800bbf1000f00f3cd80002a0cbf2b222d22ec
:103058006a54059a023b413a192a05eb030198bfc5
:103068004ff045089f4281f8008001da0cf042fbde
:10307800cb44abf104090af00303022b7ff42eaf13
:10308800b9f1000f7ff72aaf28460bf00fff05ebc9
:103098000903039a824240f3b18003984a463021db
:1030a80028440cf07bf80023049317e70134b0eeb2
:1030b80047ab2aee0c7bb4eec79bf1ee10faf5d5c0
:1030c8009fed3d7b00230be014f5967f05da23b9cd
:1030d80029ee079b2aee07ab0123013c8aee0cabd5
:1030e800b4eeca9bf1ee10faeed422e706272de7dc
:1030f800804635e74ff065083fe79fed2d8b6be77e
:10310800b0ee4a9bb8f1650f14bf2146002175e760
:103118004eb9002907da079e2e23ab550123013744
:1031280009f1ff391e46ab1805eb070c3b444ff07d
:10313800300e01e00cf801eb9c45fbd1099b02eb3a
:10314800070c3033a9eb020202f1ff3905f80c3005
:103158000cf10107002223e0dbf810300797053b4c
:10316800bb427ff654af88ee090bcde90c200b91da
:1031780005f0fefdfdeec07bdde90b1217ee90caef
:103188006346092ba8bf092309930af0100353eae1
:103198000c0c0d98bcd16728bad10029b8da0132d5
:1031a80099ee008b0139b1ee488b89ee0c9b2ae72a
:1031b8000000000000000000000000000000504374
:1031c8000000f07fcce80008d0e80008d4e8000848
:1031d800d8e800081af0100f1ebf2e23eb55013750
:1031e80019e70b4694fbfefc0ceb8c01a4eb4101a8
:1031f8003031e95464460bf1ff3b1de72a5c1a5451
:10320800013846e767283ff471af80460627a7e6ee
:020000040000fa
:020000040800f2
:103218002de9f047aeb00746164605914ff0000875
:10322800059d2b78002b00f0e08000244ff0ff3341
:10323800cde909430eab0c9380230b940d932b5dc2
:103248000bb1252b30d134b12946224638462544c6
:103258000bf058f80595059b1a78252a40f0bc8094
:1032680003f10109cdf814904a46002113782b2b5d
:10327800104602f1010223d02ed8202b24d0232b74
:1032880026d001b105902a2b2ed009f065ff059aaa
:103298000b900020114601320b78303b092b79d96d
:1032a800002830d005912ee00134c8e7099b43f08f
:1032b800010309930121d9e7099b43f00203f8e7c9
:1032c800099b43f00403f4e7099b43f00803f0e784
:1032d800099b43f01003ece72d2be7d0302bebd004
:1032e8000029d2d00590d0e733681a1d1b683260d8
:1032f8000130002b05900b9305da099a5b4282f0a6
:10330800010209920b93099bda0744bf23f00203d9
:103318000993059b1a782e2a0fd14ff0000acdf891
:1033280028a05a785d1c2a2a059535d102330593c1
:1033380033681a1d1b6832600a9305a80af0b2fbad
:10334800059d039028780cf04ff92528039900f083
:10335800da806138172800f2e080172800f2dd8053
:10336800dfe810f02b00db00b6004700a700a7003d
:10337800a700db004700db00db00db00db009e0072
:1033880065008300db00db00c700db005600db00c4
:10339800db00740001207de7284609f0ddfe534676
:1033a8000a90294601350a78303a092a03d9002bb0
:1033b800c3d00591c1e70123f3e7324606a80af016
:1033c8009bfe002872d06b1c059306aa2b7809a9ce
:1033d8003846fff785f904444444a04540f3a780e4
:1033e800544b4f221a604ff0ff3840462eb0bde8cc
:1033f800f0873346012206a805f03ef8002855d08c
:10340800013506aa09a93846059506f015f9e2e737
:103418003346002206a805f02ff8002846d00135cb
:1034280006aa09a93846059509f0a4f8d3e7334652
:10343800002206a805f020f8002837d0013506aa92
:1034480009a93846059507f001fdc4e7334600226f
:1034580006a805f011f848b36b1c05932b7806aa4b
:1034680009a9384603f056fab5e733460022f02199
:1034780006a805f001f8c8b1dde9063201351343a5
:1034880005950bd12c480bf011fd099b00932a4997
:103498000b9b0246384607f073fb9ce77823dee770
:1034a800334608eb040206a807f022fe013505950d
:1034b80092e7324606a80af01ffe0028f6d06b1cd9
:1034c800059306aa2b7809a93846fff7c9fc82e7b5
:1034d8008029ebd1336801351a1d1b6832608df8dd
:1034e80018300595012306aa09a9384609f016f8e7
:1034f80071e78029dad13268131d3360013512680b
:1035080005950023f0e78029d0d1099b0093013568
:103518000b9b059509490122bce700234ff0ff32b8
:10352800cdf8149009930b930a920093f2e7a04602
:1035380076e600bff0020220c4e80008cae80008e6
:020000040000fa
:020000040800f2
:103548002de9f041b84c84b0a37dda0779d49f0700
:10355800d1e9015672d4eb68002b6fd0b6fa86f722
:103568007f09002e6ad0b369002b67d0f369002b5e
:1035780064d03946d022201d04f190080bf00efecd
:103588004ff0ff33b446c646c4e90333eb68a36182
:10359800eb8e6968aa68c4e9071203f00102002ae1
:1035a8002a8e18bf0227a4f8c820ea692e69d5e92f
:1035b8000510a4f8d03014bf6ff003034ff0ff33a9
:1035c80084f8d270c4e90961c4e90b02c4f8cc30ac
:1035d800bce80f00aee80f00bce80f00aee80f0033
:1035e800bce80f00aee80f009ce803008ee803007b
:1035f8000121204606f0b4fb0221204606f0b0fb6c
:1036080094f89c300bb3d4f89820142111fb0321b3
:1036180011e0d3893f2b11d9b3f5c06f02f1140221
:1036280028bf4ff4c063914203f13f0323f03f03e7
:1036380022f8063c09d05389002bead14ff0ff301d
:1036480000e0204604b0bde8f081774805f0fefeb2
:103658000028f3d0a86b236bc4f89000aa8fa8f8b1
:10366800042023b10121714898470028e6d00022a0
:103678003f216d4808f06efdd4f8a86027893368ab
:10368800d4f8ac10384698470346581c00f0898097
:103698000321e360384673699847411c00f0818034
:1036a800d4f8ac300f21b4f8a0701a892061adf8b5
:1036b800047000929a7a8df8071069468df80620f2
:1036c8001b695b4a0293f36a9847002869db5648ee
:1036d80002f002feb4f8c0309a0766d4d904580143
:1036e80001f080619a1000f0400002f4e07201439a
:1036f800580400f0005001434b480a43d94301f0f5
:10370800010142ea4112d9119b1201f0100103f0a4
:103718000803114319430bf0fdfa43480cf024f851
:1037280000283ed1404802f02bfd002839d13e4800
:1037380003f0ccfd0746a0bb94f89c60002e44d053
:10374800dff8e480014604e094f89c30f9b28b423b
:103758003bd94046013706f0aff806460028f3d0bb
:103768003f21314808f022fd3f212f4807f02efd68
:103778002d480af059fe00223f212b48d5e908655b
:1037880008f0e8fc3f21284808f010fd0023c4e9b0
:103798001565a4f84e30a4f84c30a4f85230a4f8bb
:1037a8005030214801f0ccfc48e74ff0ff324ff091
:1037b800ff3369461c48cde9002300238df80c30ff
:1037c80002f03af8b4f8c03088e73f21164808f00c
:1037d800edfc3f21144807f0f9fc13480af024fed9
:1037e80032463f211048d5e9087508f0b3fc3f215f
:1037f8000d4808f0dbfc0023a27d0121a4f850301d
:103808000a432367a4f84e600748a4f84c60a4f85c
:10381800526067652175a275a565c4e91a334ff032
:10382800ff3363670ee700bf40070220a0070220ae
:0438380074070220ef
:020000040000fa
:020000040800f2
:10383c002de9f04f0f2187b002200af04dfec10791
:10384c00044604d4a10747d407b0bde8f08f8046e6
:10385c0005e06ff00d01022230460af0f3fb022066
:10386c000bf02cfc0646002833d0b56929886a88f1
:10387c00eb8848ba52bab1f5807f5bba28806a806f
:10388c00eb80e6d1aa8840f206439a42e1d1b76aae
:10389c00dff858923846ac69d9f804a00bf072fee8
:1038ac00c0eb0010d5f80e3005a95af8200005938e
:1038bc0008f068f8002800f0c880014605f10802fd
:1038cc00384605f0a9ff7b689c4200f0028102217a
:1038dc00c1e74446a107b7d5844d854baa6902f5cb
:1038ec00fa62a3fb0213aa619b096b610bf0b2fe97
:1038fc00011e6b68a8dd03f13c0603f1140803f10b
:10390c0024094ff0000a039150460af0d3fd56f8f3
:10391c00184c074694b960e056f83c0c0bf0ecfbe5
:10392c00484608f049fd211d4ff0ff330022384670
:10393c0008f09aff56f8184c002c4ed06b69211fda
:10394c00a0686a6b1b1a9342e6d297f845b00bf04d
:10395c00100b34f8043cb4f812c09a054cbfb5f8ff
:10396c004220b5f8402094451cd2a0686a69a96b26
:10397c00121a01fb0cfc624514d34ff0000c5d4a8b
:10398c0001213846bbf1000f01d0db050ad5d7f871
:10399c0004e06368cde9002c724604f07df9638a7b
:1039ac00013363822468002cd3d156f8284cc4b15f
:1039bc00a068211f6b692a6b1b1a56f83c0c9342aa
:1039cc0011d30bf099fb404608f0f6fc6ff00203a4
:1039dc000022211d384608f047ff56f8284c002cd1
:1039ec00e6d156f83c0c426a56f8083c9a420cd286
:1039fc000af1010a039b3c3608f13c08534509f1d6
:103a0c003c0981d107b0bde8f08f56f8043c002b7f
:103a1c00eed04ff0000b11e056f83c0c211f0bf0d0
:103a2c006bfb6ff003030022211d38460bf1010bd9
:103a3c0008f01aff56f8043c5b45d9d9404608f00b
:103a4c00bbfc04460028e7d1d2e77b689c427ff49c
:103a5c003eaf97f84530da063ff539af3846d9f81e
:103a6c0004400bf08ffd05a9c0eb001354f82300a4
:103a7c0004eb830407f0b8ff0146c8b1037898073c
:103a8c002dd50b880a46a868043123f0c003d9f859
:103a9c0014c043f0800322f8103bc86004f11400fa
:103aac00ab8993800123c1f808c04b8208f03efa21
:103abc00eb88012b7ff40bafd5f80e3007f13c01ee
:103acc0008357a68384601910095022104f0e4f833
:103adc00fde697f84530db063ff5f9aee8e705f172
:103aec000802384605f098fee2e700bf60000220ad
:083afc00d34d62109408022072
:020000040000fa
:020000040800f2
:103b04002de9f04786468c460846089e15467446bd
:103b14001946002b40f0c2808242b2fa82f245d9a3
:103b24004ab1c2f1200300fa02fc2efa03f39540d5
:103b340043ea0c0c94404fea154ea8b2bcfbfef8c5
:103b4400230c0efb18cc08fb00f943ea0c439945ff
:103b540028d9eb1808f1ff3704d2994502d9a8f106
:103b640002072b44a3eb0903a4b2b3fbfefc0efb38
:103b74001c330cfb00f044ea0344a04214d92c1972
:103b84000cf1ff3304d2a04202d9acf102032c445d
:103b9400241a43ea07401eb1d44000233460736002
:103ba400bde8f0874746dde76346f1e792bb431b78
:103bb40001214fea154eafb2b3fbfefc200c0efb05
:103bc4001c330cfb07f840ea0343984562d9eb1811
:103bd4000cf1ff3004d2984502d9acf102002b4419
:103be400a3eb0803a4b2b3fbfefc0efb1c330cfbdb
:103bf40007f744ea0344a7424ed92c190cf1ff33ca
:103c040004d2a74202d9acf102032c44e41b43ead8
:103c14000040c0e7c2f1200320fa03f19540904030
:103c24002efa03f303434fea154eafb2b1fbfefc89
:103c34000efb1c10190c0cfb07f841ea00418845e7
:103c440004fa02f422d969180cf1ff3004d2884531
:103c540002d9acf102002944a1eb08019bb2b1fbeb
:103c6400fefc0efb1c110cfb07f743ea01439f42c9
:103c74000ed9eb180cf1ff3104d29f4202d9acf1fa
:103c840002012b44db1b41ea004192e76046e3e773
:103c94006146f7e76046a3e76346b7e7834206d980
:103ca40016b9002108467be7c6e900e0f9e7b3fa54
:103cb40083f78fb9834201d3724508d8beeb02045f
:103cc40060eb030301209c461eb9002168e73846d7
:103cd400fae7c6e9004cf8e7c7f1200cbb4022fa2a
:103ce4000cf41c432efa0cf120fa0cf3b8400143f7
:103cf4004fea14490efa07f5b3fbf9f81ffa84feec
:103d040009fb18300b0c08fb0efa43ea00439a45f2
:103d140002fa07f240d9e31808f1ff3004d29a45b9
:103d240002d9a8f102002344a3eb0a0389b2b3fb2e
:103d3400f9f809fb183308fb0efe41ea03418e45ee
:103d44002cd9611808f1ff3304d28e4502d9a8f1a9
:103d54000203214443ea0040a0fb0298a1eb0e01b8
:103d64004145ce46434602d306d14d4504d2b9eb74
:103d7400020e68eb04030138002ea6d0b5eb0e0248
:103d840061eb030101fa0cfc22fa07f34cea03038a
:103d9400f940c6e9003198e74046c5e74346d9e70c
:020000040000fa
:020000040800f2
:103da4002de9f04f037e83b08046032b54d07c4d25
:103db400d5f80c90b9f1000f30d10f46002900f06e
:103dc400c8800b796c6806882b7434b113b92b68de
:103dd400b34202d005f0eafe6c68b968d8f808006e
:103de4002e60a860d7e90332c5e90c137b69aa6386
:103df400eb633b6aa5f840307b6aa5f84230002c9f
:103e040048d0d8f810000bf0c1fb2b7c73b9eb68d9
:103e14000133eb60012003b0bde8f08fd8f8100047
:103e24006c680bf0b3fb2b7c002bf0d0c0eb0013c1
:103e340054f8230004eb83040028e8d009f0aeff13
:103e440004f1240007f08aff04f1140007f086ff50
:103e5400201d07f083ffdae7514b1a7c002ad9d0e2
:103e640000695c680bf092fbc0eb001354f823006c
:103e740004eb83040028cdd009f090ff04f1240062
:103e840007f06cff04f1140007f068ff201d07f031
:103e940065ffbfe7314683683c2298476860002885
:103ea40057d03b6803eb4303db0028331a462b68e7
:103eb400002b52dd00f124069246cdf8048035e053
:103ec4003b68c261c0e9033e364b036200f128033c
:103ed400c0e905c10360c0e9018b0af025fba6f126
:103ee400200046f8244c0af05bfc0346a6f11000bf
:103ef4006bb30af055fc50b3304609f101090af0de
:103f04004ffc20b356f8243c3c36ba69db6802fb0c
:103f140003f3254a6333a2fb03235b0946f82c3cd5
:103f2400fb6946f8283c2b684b4514dda8685146cc
:103f3400a6f124084ff0180b436898474ff0010e80
:103f4400dff880c004461949194a0028b8d105f0a1
:103f54002dfe00205fe7ddf80480164a1c2138207e
:103f640006f00cfb18b1144a0023c0e902234ff4f5
:103f7400fa6212496864022008f0f6f90346104810
:103f8400eb610bf00bfc6b6c002be0d0eb69002bae
:103f9400ddd00028dbd000236c68c5e9053330e7a9
:103fa4006000022031f700081f85eb5125e000086e
:103fb40079f6000802000100a9ea00083d3800086b
:083fc400800002208dea0008d4
:020000040000fa
:020000040800f2
:103fcc002de9f047044684b00e46cab107464ff0bf
:103fdc000108206c90b104f13c0108f0e3ff0546a8
:103fec0000284bd0c06b4ff00009b5f84030256469
:103ffc0002ac0290adf80c3033682bb100202fe0ee
:10400c000f464ff00208e4e728460af085fb054608
:10401c000028f3d090f84530da0602d5336a1b023b
:10402c00ecd54ff4006305f13c0221463046b562f5
:10403c0009f0e2fcb9f1000f15d030460af0e0feb1
:10404c00a0f10e03b5f862209bb29a42d6d3002c95
:10405c0048d03146284609f085fec043c0f3c01055
:10406c0004b0bde8f087336a01223146284643f09c
:10407c001003336207f04af90120f1e7d4e90f9af3
:10408c00b9f1ff3f6dd050460af0defc814566d099
:10409c00baf1000f03d09af86730032b57d094f87d
:1040ac003c302033dbb20f2b3ed9e26bdaf8043014
:1040bc00daf8081053400b4271d0daf80c204ff0ac
:1040cc00020901925046012301a902aa08f0a0f9a5
:1040dc00022874d020f0020040b201288ed1256c49
:1040ec00002489e7dff8f090d9f80030002b42d09b
:1040fc003448b5f85c4009f03dfd33480af03cfb10
:10410c00014600284ed0019b80f8048044718760e2
:10411c00cb602c480af020fb2a480af04dfb336a8e
:10412c0043f008033362a7e794f83d304ff00109e0
:10413c00256c03f07f03adf808908df80b305e23ef
:10414c008df80a30e38f02acadf80c3054e70295d1
:10415c004ff00109adf80c50256c02ac4ce7d4f8cb
:10416c0040a04ff0ff33554602ac4ff001090293cb
:10417c00adf80c3040e722462046144909f014fdf6
:10418c00c9f800000028b3d10bf088fa01287ff69b
:10419c0035af0bf07dfa0e4907f024f92ee74ff0fe
:1041ac0001098ee70bf07afa012804d90bf070faaa
:1041bc00084907f017f903480af0fefa1ee7256cc8
:1041cc0002ac19e7e801022010020220c5860008a3
:0c41dc0078130008a8130008ac020220b1
:020000040000fa
:020000040800f2
:1041e8002de9f04f06690746808a95b096f8453064
:1041f8001546a6f85c000c4697f81980d6f8489042
:1042080068f38303d6f858a086f8453089b1b9f821
:10421800001072b19446234604e0bcf1010c03f18e
:10422800080306d01a888a42f7d1d3f804a0c6f842
:1042380058a0b8f1010f46d0dff8b48114bb21466d
:10424800d8f8043038469847814690b308f10c08ee
:104258005a4b9845f2d1706d80b1b36c012240f28f
:104268009671db6c9847002800f0868096f84530f8
:1042780003f03f0343f0400386f84530484615b045
:10428800bde8f08fb8f800202946002dd8d0234685
:1042980003e0013903f10803d2d0b3f800c0944514
:1042a800f7d159683846d8f804309847814600282d
:1042b800ccd10bf0f5f9002878d14ff00009484629
:1042c80015b0bde8f08f3b884ff0000badf83e000d
:1042d800adf83c303a4b0d9604933a4bcdf838b0d4
:1042e8000593394b0693bb680793384b0893384bb3
:1042f8000993384b0a93384b0b93384bcde910bbd5
:104308000c93cde912bb0bf017faadf840000bf097
:1043180045fa04abadf8420001a9f06badf8468050
:1043280012908df804b0cde9023a3b8badf84430d9
:10433800b6f84030adf84c30d9f80830b9f800007c
:1043480098473065013023d0d9f81c300321b9f8db
:1043580000009847706501307ff46eafc6e914bb62
:104368000bf09ef90028a8d00bf094f91c49d9f855
:10437800042007f039f8a0e70bf092f900289cd048
:104388000bf088f9b36c17495a6807f02df894e7d1
:10439800c6f850b00bf084f900288ed00bf07af9eb
:1043a8001149d9f8042007f01ff886e70bf072f9d5
:1043b8000e49b8f8002007f017f87ee72ce500084a
:1043c80095f7000899f700089df7000881a50008ef
:1043d8003dda000851e00008adb2000825c7000822
:1043e800bc0e0008140f00088c0e0008e00e000830
:0443f80008e50008cc
:020000040000fa
:020000040800f2
:1043fc0000282de9f04784b0c0f28f807c4b1b68fd
:10440c00984280f28a807b4b1b6853f82050002d19
:10441c0000f0838095f86430012b7ed1ec68002c81
:10442c007cd0236a1e0778d495f83d30980779d450
:10443c00ac682b68e41aa4b2002c6fd06b69002b0b
:10444c006bd095f93c2095f83c30002a686a6edafe
:10445c0000286cd003f00303022b00f0bd806969c7
:10446c0095f83d30ee68d5f818c013f00209f769dd
:10447c003064c6e90ec16dd0b6f85440082306f17d
:10448c00480904eb03081ffa88f8d6f810e06a8d87
:10449c00bef80ca052ba5344aef80c3098fa98fe01
:1044ac002b8d3a805bbaa7f804e07b800023fb805d
:1044bc0090f8643013f002026bd0b5f8443095f8e4
:1044cc004520c3f3c50096f83c30c2f3400195f883
:1044dc00662003f0f003e02b45d06b468df80120ed
:1044ec008df8000042468df802103046112102f082
:1044fc0031fb0022134632603046b3860bf00ef9c6
:10450c0060b995f83d3032699b07908161d5a6f86a
:10451c005400336a23f0080333620024204604b0ad
:10452c00bde8f087b4f85440002cf7d086e7c3f30d
:10453c00801305f1180205f1140108f057fd6862ab
:10454c000028ead095f83c2062f03f02d3b285f8ff
:10455c003c207fe7ab682a689b1a9cb204f10803e5
:10456c009bb2984691e7012a6b468df800003046c5
:10457c0038bf01228df8021011218df8012042461e
:10458c0002f0e8fa95f83e300022c3f38003326063
:10459c00b2e74ff4885301a8adf80ee0adf80c303b
:1045ac00cde901c10c2107f059f895f83d30c24313
:1045bc00990792b216d50821384607f04ff80246f3
:1045cc002146d9f80800d24392b207f047f8f88098
:1045dc0073e72b68ab609ce70af036fa0146686a11
:1045ec0069613de74146384607f038f8efe700bf10
:0845fc00c8020220cc020220db
:020000040000fa
:020000040800f2
:104604002de9f04f0f2187b0092009f069ffc50794
:1046140029d407b0bde8f08f41f0080149ea010947
:10462400b9f10f0f40f0a580012384f8643094f8a9
:1046340044309a0705d5019b1b7c03f0f003e02b63
:104644001dd1294604f148000af08af8b4f8623012
:10465400db0508d5666d36b1a36d4ff48072a96a87
:10466400b4f91200b04709200af02cfd05460028d1
:10467400cfd0ab8d072b11d92a6a940311d56ff0d3
:104684000e012846092209f0e1fc09200af01afd6e
:1046940005460028bdd0ab8d072bedd86ff00d017a
:1046a400efe7ec69a1884fbabfb2bb42f6d1a86963
:1046b400e388019013b112f4806276d04f4b083f27
:1046c400b4f800e0b4f802c018689efa9efe9cfaa2
:1046d4009cfca7800028af6aa4f800e01ffa8efeb5
:1046e400a4f802c01ffa8cfcc9dd454b1a680023ec
:1046f400043a52f8044f002c3bd094f83e1089073a
:1047040037d5b4f86080216d414532da618d614559
:104714002fd194f86480b8f1010f2ed0b8f1000fb6
:1047240027d1b4f828b00121c146d4f83ca0f34500
:104734002bd01af0040fd4f8248018bf41f00201e2
:10474400474528d0b8f1000f02d01af0080f01d065
:1047540041f00401d4f81c80b8f1000f3ff45cafc1
:104764001af0100f7ff458afae69d6f80ca0d045fc
:1047740014d001338342bcd181e7b4f828b00021be
:10478400c146d4f83ca0f345d3d148f00209d4f88b
:1047940024804745d6d149f00409dbe749f00809ec
:1047a400b9f10f0f7ff43aaf41e70369adf8161082
:1047b4000c210493c3680deb010003934ff4885359
:1047c400adf8143006f04eff2a6ac34350079bb27b
:1047d4000ad53a462146284605f00cfb00283ff44a
:1047e4006daf6ff009014ce71a463946204606f0d2
:1047f40039ff00283ff462aff3e700bfc80202208c
:04480400cc020220c0
:020000040000fa
:020000040800f2
:10480800f8b508f033fd002800f0ad800546d5f86e
:104818008c40002c42d023695b689d4265d1e37bc4
:10482800022b56d1237b013bdab2042a3fd8a27b64
:10483800012a00f09980664a2146284652f823301a
:104848009847a37b052b3fd8042b27d92669736883
:104858009d4256d1607b10f0010011d1b768d7b1e5
:10486800a37b5a1e032a7cd9062b00f2a280052bb3
:1048780001d10423a3730022304623892146b84777
:10488800237b032b0ad0022305f18c0221462846fc
:1048980004f052f9bbe7237b032b3ed10af086ffd5
:1048a8002b7801332b70bde8f8400af081bf40f245
:1048b800c733484a4849002006f096fd474b1a6816
:1048c800002afcd10723a373e8680af045fea37bfe
:1048d800bae740f2bb333f4a3f49002006f084fd67
:1048e8003e4b1a68002afcd19ce740f2ba33394a99
:1048f8003949002006f078fd384b1a68002afcd1a7
:104908008de740f2bc43364a3349002006f06cfd7f
:10491800324b1a68002afcd19ce7d5f88c606eb33c
:10492800d5f890309e4225d03268d5f89430c5f835
:104938008c20013bc5f89430f37b022b2dd1b44277
:104948001cd10022d5f89c3032601bb31e60c5f81c
:104958009c60d5f8a03003220133c5f8a030f2736b
:1049680055e7012288e7f8bde8680af0edfd237bea
:10497800013b60e73a46c5f89070d6e740f2562307
:10498800184a1549002006f02ffd144b1a68002a12
:10499800fcd1d6e7c5e92666dbe74ff48373124af4
:1049a8000d49002006f020fd0c4b1a68002afcd1a6
:1049b800c5e740f2f3430d4a074906f015fd074bda
:1049c8001a68002afcd1b7686ff0130254e700bfd9
:1049d80078f0000864f00008300e00087402022025
:1049e800e0f10008e0f5000814ef0008ccf1000839
:020000040000fa
:020000040800f2
:1049f80001eb0112d0f88c3001eb810103eb82034b
:104a08002de9f04f064683b04fea820b5d698a00b4
:104a1800336b01270192002b00f0a18006f160089a
:104a2800032140469847d6f88c305b445c6a002cda
:104a380000f0a980d6f830809a6aa24200f09f80e0
:104a48002168da6a5962013ada62b8f1000f03d0d4
:104a5800042106f16000c047a38805ebc3024feab2
:104a6800c30c5168002980f2958055f8331000294d
:104a780000f09080b4f808e01168d6f8cc000ef188
:104a8800ff32b6f9c880014092b2e78851f80800b1
:104a98000092bef1000f27d0019a4ff00008d6f817
:104aa80098108646dff828911144009a0097b1f8cb
:104ab8000aa005eb0c010133013a4ff6ff7748686d
:104ac8009bb292b240f000409a4598bf0023ba4288
:104ad8004860486800ea0900486045f80c804fead9
:104ae800c30ce6d1009f7046036a41f25002d6f823
:104af8002c80012123f008030362c047f16f05eb06
:104b0800c700d6f88c30013142685b44f16722f463
:104b180000424260a3f84070bff35f8f0023376bf9
:104b28002381636027b1032106f16000b847376b22
:104b3800d6f88c30002103eb0b022160516bd9b100
:104b48000c605463916b0131916357b1042106f1f4
:104b58006000b847336b0027002b7ff45fafd6f8af
:104b68008c305b444ff000085c6a002c7ff464af23
:104b7800384603b0bde8f08fc2e90c44e2e70022f2
:104b880011469a625de7336b002bf1d00421404651
:104b98009847ede7326b22b1032106f16000904798
:104ba800326bd6f88c305b44596a71b12160d96a8e
:104bb8005c620131d962002adad0042106f1600072
:104bc8009047384603b0bde8f08f9c62efe700bf1e
:044bd800008000c099
:020000040000fa
:020000040800f2
:104bdc002de9f04f714c83b0074688462378002ba3
:104bec0000f0d080b8f1040f40f2d5804ff00009ee
:104bfc006b4c4f4400233d783e1dfa78791e05f12d
:104c0c00050970192570a8eb09082272e66011f8e5
:104c1c00016f33448842dbb2f9d1002b40f0ad80f8
:104c2c00042a74d8dfe802f024701b7303007b792c
:104c3c0000213a791b04616103eb0263a361b8f1b3
:104c4c00040fd6d8237a181f022b88bf012894bfd3
:104c5c0001200020013840b203b0bde8f08f7b7911
:104c6c0000213a791b01a16103eb02336361e6e792
:104c7c00d4e90513b8785e187b78064406eb032656
:104c8c006660002ddbd0dff820b192462ce0dbf81b
:104c9c000c00b0f5806f54d0dbe901321344b34201
:104cac0008d0f31a0344b3f5806f46d2c6f309005b
:104cbc00cbf80c00227813181546b3f5806f2ad95f
:104ccc00c0f58062e168ad1aedb242bb6368104476
:104cdc001144cbf804601344e1606360cbe902201b
:104cec002570002dabd0666806f174422d4b9a42ac
:104cfc00cdd3e3680436032d03f104036660e3604f
:104d0c0018d9043dedb2ebe7274deb68fbb9002356
:104d1c00c4e9053393e75546e168002ad6d0203024
:104d2c005844cde900120af0b3f8dbf80c00dde9c9
:104d3c000012cbe70023237081e7304608f07ef8a1
:104d4c00b4e7304608f07af8dbf80c00a4e7284604
:104d5c0050f8201b07f018f90af024fc0028fbd1ae
:104d6c004ff040634ff48062ff21c5e902000f4809
:104d7c00c5e900330af010fac9e76ff0090003b077
:104d8c00bde8f08f4ff48062ff2108480af004fa66
:104d9c000123237026e7024c54e700bf6602022071
:104dac008801022000f03f00200302204003022073
:020000040000fa
:020000040800f2
:104dbc0070b56b4c2378062b7bd8dfe803f00a1b0d
:104dcc002e3c6d7a040009f0affabde8704005f096
:104ddc00dbbc4ff0ff330720e36003f0fdf8034624
:104dec00e0600133f1d001225e490af009fc012395
:104dfc002370eae7ff23e068237409f011ff02280f
:104e0c002074e2d14ff400725749e068626009f0f7
:104e1c0013ff4ff482732380d7e7534d002395f88b
:104e2c0000226360531e2a70042bced8dfe803f0f7
:104e3c005a7366867c006668002ec6d04a4d314691
:104e4c00284608f01ff805eb060ca8550123c0f303
:104e5c000720023685f800328cf801007dd02846f8
:104e6c000cf1020c1946414e4ff0100e0ce0d2071b
:104e7c0010d56a1882f800e24a1ca918604581f81e
:104e8c00003202f101011ad010f8013b102b26fa66
:104e9c0003f2ecd90a46f0e7637c002b95d06378db
:104eac000022012b627455d0062b03d001232370f2
:104ebc008be707232370bde8704005f065bc023218
:104ecc000d4404210023e06885f800122849636032
:104edc0009f0befe6378062b01d003236370042314
:104eec00237072e70af00afc064608f057f9032310
:104efc0076ba6360a5f80160237066e7a1681d4867
:104f0c000339fff765fe00287ff45faf012203230e
:104f1c006260237059e74ff0ff3004f0afff0322bb
:104f2c0001232270636050e74ff0a53004f0a6ff18
:104f3c00012240f203636260238046e7d5f8051234
:104f4c00d5f8010207f09eff0323a5f8010063606a
:104f5c0023703ae70223237037e702221946afe7a2
:104f6c00c0010220e5960008e0f0112012000100bb
:084f7c00e0f21120e1f2112026
:020000040000fa
:020000040800f2
:104f84008c46d0f898102de9f04f16460ceb8c02a5
:104f940085b04fea820b31f822200392002b00f0f7
:104fa400cb805c1e0ceb0c1800230546a4b2cdf894
:104fb40008c04fea880800930ee003684fea860aa7
:104fc40053f826702fb3013c4ff6ff73a4b29c42f2
:104fd40000f09480d5f89810d5f88c0059444044da
:104fe400cb8802699a42e8da0023029a09892846a2
:104ff40004f0c6fb03460090013300f09680d5f818
:105004008c004fea860a4044036853f82670002f48
:10501400d9d12b6b002b75d005f15c02052110460c
:1050240001929847d5f88c00019a40442b6bd0f834
:105034000890b9f1000f71d0c2684a456bd0d9f815
:10504400007002698760013a02611bb1062105f113
:105054005c009847d9f81030596821f0030701f033
:105064001c01bff34f8f354839443a468b1ac0f8b8
:105074005c222032002bf9dcbff34f8fbff36f8f1c
:105084002a6b22b1052105f15c0090472a6bd5f803
:1050940098104ff0000ed5f88c3031f80b104344c3
:1050a400013958688e4200ebc60c08bf47f002076e
:1050b400ccf804e040f8367032b1062105f15c000a
:1050c4009047d5f88c30434401361a68039b013c61
:1050d400b6b21b49a4b2c9f80c50b34298bf00261b
:1050e4000023c9f80810c9f8203042f80a90c9f81a
:1050f40000304ff6ff739c427ff46caf009805b00c
:10510400bde8f08fd0f80890b9f1000f3ff45baf21
:10511400c2684a4593d10022c26092e7002b3ff453
:1051240052af1046062198474de7ab6f0098013304
:10513400ab6705b0bde8f08f0093dfe700ed00e05a
:045144005d92000870
:020000040000fa
:020000040800f2
:105148002de9f043044693b000223f2107f002f80e
:105158000021204606f090fe3f21204607f026f861
:1051680000223f21204606f0f5ff20463f2107f0a8
:105178001df820690023d4f8a850421ca4f84e302a
:105188006365a4f84c30a4f85230a4f8503004d029
:10519800ab6998474ff0ff332361e068431c04d0a4
:1051a800ab6898474ff0ff33e3606ff0010120468a
:1051b80005f026fa94f89c30002b00f09780002622
:1051c8003746d4f88c10442201a804f16008314411
:1051d80009f060fe02e0236aa0699847236b032167
:1051e800404603b198470da809f058fa236b0546c5
:1051f8000421404603b198472946002debd104f11c
:10520800600802e0236aa0699847236b032140469f
:1052180003b198470aa809f041fa236b054604210f
:10522800404603b198472946002debd1013794f841
:105238009c304436fab29342c3d8002b56d02e463f
:10524800a8462f46d4f88c10442201a804f15c0922
:10525800414409f01ffe01e0a36a9847236b05212a
:10526800484603b1984703a809f018fa236b054686
:105278000621484603b198472846002decd1d4f8ba
:1052880098c001993cf80630fbb1c1b151f825002e
:1052980001eb850e4fea850930b1a36a9847019959
:1052a800d4f898c001eb090e029a002302ebc5005e
:1052b800adf84030cef8003042f835304360013563
:1052c8003cf80620abb29a42dfd821b1236aa06924
:1052d800984700230193bff35f8f013794f89c2010
:1052e80008f144081436fbb29a42abd8236b1bb1c1
:1052f800022104f16000984700232375e38213b06c
:04530800bde8f08389
:020000040000fa
:020000040800f2
:10530c002de9f0410f2186b0032009f0e5f8c20722
:10531c000dd406b0bde8f0819b0003f03c05132dc5
:10532c0012d86ff00d010322204608f08bfe0320eb
:10533c0009f0c4fe04460028ebd0a669337803f0cc
:10534c00f002402aedd1e7e723699b89ab42e8d311
:10535c0077887fbabfb2bd42e3d809f051fd8742ce
:10536c00dfd8a76a1fb197f844305b0602d46ff000
:10537c001301d8e7f268501c55d0d7e9013163ea24
:10538c0001039a424fd0d6f81080b8f1000f4dd0df
:10539c00b6460df1040cbee80f00ace80f00bdf8ea
:1053ac000a30ccf800805bbac3f30d03002bb8d1e4
:1053bc00236a13f480723cd03e4ad7e90113127869
:1053cc0001ea0300804511d0b8f1ff3f3ad061ea01
:1053dc000303984536d09df8143003f0f003e02b0e
:1053ec004cd0884563d0344b984560d0334b1a6809
:1053fc0019688a42fbd1002ab9d0314f384608f0df
:10540c00b9fb3e68002e4ad0337a294620461bb1a0
:10541c0073689847002846d13668002ef4d1284886
:10542c0009f0caf9a3e76ff00a017ce76ff00b01f2
:10543c0079e73046294606f011f90028bcd06ff008
:10544c00090170e79107d1d4a16920690b789b0001
:10545c0003f03c03ca18e2618289d21a828148881f
:10546c00ca8840ba52bac31a4880a3854b7aca80fc
:10547c0092b2112b05d06ff00e0154e75207e3d511
:10548c00b4e7c2f30d02002a7ff451af012221468a
:10549c00092007f00bff00287ff449afebe73846f3
:1054ac0009f08af963e7064809f086f9cce7d307d7
:1054bc00cad59be7fd0202207f000001a802022052
:0454cc00d0f01120eb
:020000040000fa
:020000040800f2
:1054d0002de9f04f074602eb0213084602eb820269
:1054e000d7f88c4083b0d7f8981004eb8304d7f832
:1054f000a49001eb8201b4f83ec09b00b4f84020b8
:10550000b1f80a806245666940f2a680a2eb0c02ff
:10551000014695b2002800f0a880002201320968f7
:1055200092b20029fad19542c0f09280cdf8049051
:105530006246554cba46994656f832504feac20b6d
:1055400006ebc207002d40f08380b0f80ce08568c0
:10555000bef1000f14d005f01f037344bff34f8f4b
:105560002b44c4f868522035a3eb050ebef1000fa2
:10557000f7dcbff34f8fbff36f8f8568b0f80ce097
:105580007b68cef30d0e0068013203f04043013119
:1055900092b27b6089b246f80b50904598bf0022ca
:1055a0007d684eea05057d600028c5d14b46daf8d6
:1055b0008c40ddf804901c44e287002a59d0531e29
:1055c0009bb206ebc302256bdf00506840f400403d
:1055d00050603db1626b954252d02a682263a26b43
:1055e000013aa263a5f804c02981eb80c9b108f192
:1055f000ff303a46a44680b204e00139034689b23e
:10560000da0069b132445c1e576827f000475760e2
:10561000002bf2d00139a3b289b2da000029f1d10e
:1056200064460022a36a2a603bb31d60a562e36a58
:105630000133e362bff35f8f09f580590020d9f889
:10564000003043f40073c9f8003003b0bde8f08fb8
:10565000032003b0bde8f08f02eb08050146a5eb7f
:105660000c05adb200287ff458af6246e287002aed
:10567000a5d108f1ff339bb2a3e7c4e90955d6e7ea
:0c56800000226263aae700bf00ed00e01a
:020000040000fa
:020000040800f2
:10568c002de9f047684c844240f0bc800d46b4f8dc
:10569c004c30002a57d04e10ca10091106f0800663
:1056ac0002f0020201f040010a43690201f4806138
:1056bc000a43691101f010010a4305f004010e437d
:1056cc001643002b40f0a180b4f850201d4346ea4d
:1056dc000203a4f84c50a4f850308db3b4f85230f7
:1056ec0094f89c209bb226ea03062ab30027dff825
:1056fc003881b946ba46d4f8983026f0d0055146d0
:10570c0040463b44adb209f1010914371a7c5b7c6d
:10571c00012a464a08bf3546012b18bf154008f030
:10572c0093fe514640462a465ffa89fa09f0d8faa8
:10573c0094f89c305345ded83f213b4805f044fd9e
:10574c000120bde8f0871d4022682f111188ea1056
:10575c002eb207f0400702f002024fea65083a4306
:10576c00770208f0800807f480673a436f1105f060
:10577c00040548ea050807f010052a4341f25005d4
:10578c0048ea02082a4aa9420cbf91464ff0000988
:10579c00002b41d1b4f84e2023ea060392b2a4f8b0
:1057ac004c3022ea0602a4f84e204ff6ff72b4f8f1
:1057bc00521088ea02021140a4f85210b4f85010aa
:1057cc000a40a4f8502094f89c209ab10026164f59
:1057dc003546294642463846013609f08dfa2946a7
:1057ec003846f5b208f030fe94f89c30ab42f0d855
:1057fc00b4f84c30002ba3d04a463f210a4806f09f
:10580c000dff9de70020bde8f08700223f2106f048
:10581c009ffcb4f84c3057e74a463f2106f098fc01
:10582c00b4f84c30b6e700bf40070220f9fbffff8d
:04583c0050020220f4
:020000040000fa
:020000040800f2
:105840002de9f0470b7bd0f8a400012b0ad000f51e
:10585000805e0020d1e90032cef88030cef884207e
:10586000bde8f0878d6800f5805e6f792879c7f311
:105870008012c7f34004c7f3000195f8038084ea5f
:10588000d714c7f3800c5140c0f34012c8f3c006d0
:10589000c0f340095440c0f3001274405140c8f3b3
:1058a0008006c0f3000271408cea020cc0f380163f
:1058b000aa788cea060cc7f3c00686ea0906c2f38a
:1058c000400984ea0904c2f3000986ead01681ea95
:1058d000090ac8f30011c7f30019c7f340178cea8f
:1058e000010cc0f3800184ead21489ea0109c0f3f3
:1058f000c00168784f40c2f380112d788aea010117
:10590000c2f3800a8cea0a0cc8f3401a86ea0a0637
:10591000c8f3000a89ea0a09c0f3401a84ea0a04b3
:10592000c0f3001a81ea0a01c0f3000a8cea0a0ceb
:10593000c2f3c00a86ea0a06c8f3801a89ea0a098d
:10594000c8f3400a87ea0a0787ead817c5f3c008f0
:1059500084ea0804c5f3800881ea0801c0f38018ce
:1059600041ea44018cea0808c0f34004c2f3001c79
:10597000664089ea0c04c2f3401c86ead01687ea26
:105980000c02c5f3001788ea070741ea8701c0f354
:105990008007c0f3c00084ea070cc5f380145040b0
:1059a000c5f34012564041eac602c5f300018cea35
:1059b0000101614042ea0112c5f340014840def8ae
:1059c000841080ead51042ea4012002002f03f0223
:1059d000934041eae372def880100b43cef880304a
:0859e000cef88420bde8f08739
:020000040000fa
:020000040800f2
:1059e8002de9f043446885b0002200230026d4f84e
:1059f8008c5007460296cde90023002d00f0b080b8
:105a0800d4f89030b046b146ab421dd02b68d4f8dc
:105a18009420c4f88c30013ac4f89420ea7b022a16
:105a280016d12a69ba424ff000022a6023d0002e0c
:105a380000f09d80356008f101082e462bb31d4605
:105a4800d4f89030ab42e1d10023c4f89030dee7bf
:105a58004ff48373494a4a49002005f0c5fc494b75
:105a68001a68002afcd12a69d4f88c30ba424ff05f
:105a780000022a60dbd1019a002a7ad01560029ac6
:105a8800019501320292002bd9d10099c4f8948073
:105a9800c4e9239641b16d4602232a46204603f005
:105aa8004bf800990029f7d1d4f8985045b3d4f8a9
:105ab8009c300026ab42b046b1461dd02b68d4f8c6
:105ac800a020c4f89830013ac4f8a020ea7b032a41
:105ad8002bd12a69ba424ff000022a6038d0b8f1b7
:105ae800000f42d0c8f800500136a8465bb11d46e9
:105af800d4f89c30ab42e1d10023c4f89c30dee7f7
:105b0800a846a9462e460099c4f8a060c4e926987c
:105b180041b16d4603232a46204603f00df800994b
:105b28000029f7d105b0bde8f0834ff48373134a19
:105b38001349002005f058fc124b1a68002afcd1c2
:105b48002a69d4f89830ba424ff000022a60c6d1c8
:105b5800019a82b11560029a019501320292c5e755
:105b6800c4e92355c4f894509ee7a946bce7a94662
:105b780061e7009583e70095ede700bf14ef0008a3
:085b8800300e00087402022037
:020000040000fa
:020000040800f2
:105b90002de9f043644f87b0874227d10023914617
:105ba0003a6b88460593cde903331ab1052107f115
:105bb0005c0090475c4807f03df85c4e3b6b044648
:105bc00030701bb106215a4898473478ff2c25d1f4
:105bd000059b012b04dd039a136a43f0040313624f
:105be000b8f1000f02d0012388f80030002007b080
:105bf000bde8f0833b6b03b1984731784a4808f021
:105c0000bdfa494807f016f83b6b044606214848a0
:105c100034700bb198473478ff2c5ed003a904abe5
:105c200005aa41480094fcf745ff05460521404878
:105c3000002ddfd1059b039c012b03dd236a43f07c
:105c4000040323627b6e01337b66b8f1000f02d040
:105c5000002388f80030216997f8d2708a894d684e
:105c60000e3a0b683d4492b28d608a815bb1d21bc3
:105c70008a815a6818469a601b68002bf9d183897b
:105c80008d681f44878105f10e03c4e9055308f0b0
:105c900071fc039d60622b6a9df8131023f0700362
:105ca00043f008022a629df91320002a31db4806de
:105cb00033d543f048032b62b9f1000f02d0049ba7
:105cc000c9f800303178184808f044fa03460398c0
:105cd00085f82f3007b0bde8f083059b013d012b0f
:105ce000edb208dd039a012d136a43f00403136239
:105cf0007ff676af02e0012d7ff672af3b6f013386
:105d00003b67b8f1000f3ff471aff52388f800301e
:105d10006ce743f028032b62cee78a06ccd543f02c
:105d200018032b62c8e700bf4007022001030220ce
